:1000000026C1000090C5000063C5000036C5000091
:1000100009C50000DCC40000AFC4000082C40000B9
:1000200055C4000045C1000043C1000041C10000AB
:100030003FC100003DC100003BC1000039C10000CC
:1000400037C1000035C1000033C1000031C10000DC
:1000500009C600002DC100002BC100000C949509B9
:1000600027C10000C9C500009EC5000021C10000D5
:100070001FC100001DC100001BC1000019C100000C
:1000800017C1000015C1000013C1000011C100001C
:100090000FC100000DC100000BC100008BC60000A5
:1000A00007C1000005C1000003C1000001C100003C
:1000B000FFC00000FDC00000FBC00000F9C0000050
:1000C000F7C00000F5C00000F3C00000F1C0000060
:1000D000EFC00000EDC00000EBC00000E9C0000070
:1000E000E7C00000600365036A0374037E03F7033F
:1000F000880390039803A203AC03B603C503CF03A0
:10010000F703D903E303ED032108240813081708B4
:100110001D085B0828082C08320836083A084008F1
:10012000440848085B084E085208560800002100A1
:10013000240027002A002D003000330001010000B8
:10014000040107010A0100002200250028002B00FD
:100150002E003100340002010000050108010B01EE
:10016000000020002300260029002C002F00320070
:100170000001000003010601090105050505070549
:1001800008080808020202020A0A08080404040413
:10019000010101010101010103030303030303033F
:1001A000040707070C0C0C0C0C0C0C0C02020202CE
:1001B00006060606060606060B0B0B0B0B0B0B0BB7
:1001C0000102102020080810204010204080020169
:1001D000020108040201010204081020408080404E
:1001E000201008040201800402018040201008044D
:1001F00002010804020101020408102040800102EB
:1002000004081020408000000A0B02090C0D0E08A3
:1002100007030401000000000000000000000000CF
:1002200000000000000000000000000000000000CE
:10023000000012111000000000000000000000008B
:10024000000000000000000000000000970B1124D7
:100250001FBECFEFD1E2DEBFCDBF00E00CBF12E08A
:10026000A0E0B2E0E2E9F8E100E00BBF02C00790D5
:100270000D92AA37B107D9F723E0AAE7B2E001C08F
:100280001D92A03BB207E1F711E0C7E2D1E000E028
:1002900006C021970109802FFE010E94390CC63249
:1002A000D10780E00807A9F70E94DF090C94470CEA
:1002B000A7CE0895CF92DF92EF92FF920F931F93F4
:1002C000CF93DF936C017A018B01C0E0D0E0CE15B3
:1002D000DF0581F0D8016D918D01D601ED91FC9182
:1002E0000190F081E02DC6011995892B11F021961E
:1002F000EECF7E01C701DF91CF911F910F91FF904B
:10030000EF90DF90CF900895FC01538D448D252F01
:1003100030E0842F90E0821B930B541710F0CF969F
:10032000089501970895FC01918D828D981761F0D1
:10033000828DDF01A80FB11D5D968C91928D9F5F1C
:100340009F73928F90E008958FEF9FEF0895FC01C7
:10035000918D828D981731F0828DE80FF11D858D7A
:1003600090E008958FEF9FEF0895FC01918D228D0D
:10037000892F90E0805C9F4F821B91098F73992792
:10038000089586EE92E0F1DF21E0892B09F420E068
:10039000822F0895FC01848DDF01A80FB11DA35A9F
:1003A000BF4F2C91848D90E001968F739927848F95
:1003B000A689B7892C93A089B1898C9183708064B8
:1003C0008C93938D848D981306C00288F389E02D59
:1003D00080818F7D80830895EF92FF920F931F930A
:1003E000CF93DF93EC0181E0888F9B8D8C8D9813E8
:1003F00005C0E889F989808185FD25C0F62E0B8D21
:1004000010E00F5F1F4F0F731127E02E8C8DE81245
:100410000BC00FB607FCFACFE889F989808185FF08
:10042000F5CFCE01B7DFF2CF8B8DFE01E80FF11DC6
:10043000E35AFF4FF0829FB7F8940B8FEA89FB894C
:10044000808180620AC09FB7F894EE89FF8960833B
:10045000E889F98980818370806480839FBF81E00F
:1004600090E0DF91CF911F910F91FF90EF90089551
:10047000CF93DF93EC01888D8823C1F0EA89FB8953
:10048000808185FD05C0A889B9898C9186FD0EC043
:100490000FB607FCF5CF808185FFF2CFA889B98917
:1004A0008C9185FFEDCFCE0175DFE8CFDF91CF9145
:1004B000089580E090E0892B19F063DF811125C059
:1004C00080E090E0892B41F080E090E0892B21F0E2
:1004D0000E94000081111CC080E090E0892B41F057
:1004E00080E090E0892B21F00E940000811113C070
:1004F00080E090E0892BA1F080E090E0892B81F0F2
:100500000E94000081110AC008950E940000D8CF07
:100510000E940000E1CF0E940000EACF0C9400008E
:100520000895089585ED8093BC008091BC0084FD02
:10053000FCCF1092BF02089540919B02262F30E01D
:10054000240F311D21323105DCF42091BF0224300B
:10055000C9F4FC0180E090E0861758F430919B02CA
:100560002191DC01A558BD4FA30FB11D2C9301961D
:10057000F3CF80919B02680F60939B0280E0089507
:1005800081E0089582E0089508958FEF9FEF089528
:100590008FEF9FEF089580917A0290E09195819579
:1005A00091090895CF93DF93CB01EA01642FC4DF53
:1005B000CE01DF91CF910895CF93DF931F92CDB7F6
:1005C000DEB7698361E0CE010196B6DF81E090E09D
:1005D0000F90DF91CF910895089580E090E0089505
:1005E000CF93DF93EC0160E08E81A6D561E08E8130
:1005F000A3D560E08E81A0D58BE891E00197F1F75B
:10060000DF91CF91089560E08EE096D51092E502DB
:10061000089560E084E090D560E086E08DC581E0DB
:100620008093E50287E160D5892B19F461E08EE1C2
:1006300083C508950F931F93CF93DF9380917B0021
:10064000877F80937B0080E480937C0080917A0098
:10065000806480937A0080917A0086FDFCCFA0911F
:10066000780080917900B0E0B82B2FEF30E00E9445
:10067000410C2FEF33E040E050E00E94EC0BE90129
:10068000890161E085E086D5209711F460E004C01F
:10069000CF3FD10521F461E085E04ED5ADC0EBE060
:1006A000F2E0E4918E2F90E0FC013197E231F10508
:1006B00008F09DC08827EE58FF4F8F4F0C94390CDF
:1006C00084B5806884BDC7BD97C084B5806284BD91
:1006D000C8BD92C080918000806880938000D093D4
:1006E0008900C093880088C08091800080628093D8
:1006F0008000D0938B00C0938A007EC080918000E0
:10070000886080938000D0938D00C0938C0074C06B
:100710008091B00080688093B000C093B3006CC03B
:100720008091B00080628093B000C093B40064C038
:1007300080919000806880939000D0939900C0933E
:1007400098005AC080919000806280939000D0936E
:100750009B00C0939A0050C0809190008860809365
:100760009000D0939D00C0939C0046C08091A00053
:1007700080688093A0008091A0008F7B8093A00070
:10078000D093A900C093A80037C08091A0008062D8
:100790008093A000D093AB00C093AA002DC080919D
:1007A000A00088608093A000D093AD00C093AC00FF
:1007B00023C080912001806880932001D09329017B
:1007C000C093280119C0809120018062809320018C
:1007D000D0932B01C0932A010FC080912001886023
:1007E00080932001D0932D01C0932C0105C00038C7
:1007F00011050CF050CF4ACF8FE076D4892B31F41D
:1008000061E08FE199D460E088E196D48FE06CD408
:10081000892B21F485E168D4892B29F18FE064D4F8
:10082000892B21F484E160D4892B51F184E15CD4DB
:10083000019721F485E158D4019779F18FE054D4E0
:10084000019709F037C060E08FE176D460E088E17D
:1008500073D460E084E070D460E086E0DF91CF91F3
:100860001F910F9169C460E08FE166D461E088E177
:1008700063D461E084E060D460E086E05DD4CECFF4
:1008800060E08FE159D461E088E156D460E084E013
:1008900053D461E086E050D4C9CF61E08FE14CD4FD
:1008A00060E088E149D460E084E046D460E086E01E
:1008B00043D4C4CFDF91CF911F910F91089560E091
:1008C0008EE13AD4FED31092E50208951F920F9262
:1008D0000FB60F9211240BB60F922F933F934F93A5
:1008E0005F936F937F938F939F93AF93BF93EF9398
:1008F000FF93E0910E02F0910F021995FF91EF9195
:10090000BF91AF919F918F917F916F915F914F9127
:100910003F912F910F900BBE0F900FBE0F901F9025
:1009200018951F920F920FB60F9211240BB60F92CB
:100930002F933F934F935F936F937F938F939F93E7
:10094000AF93BF93EF93FF93E0910C02F0910D02F0
:100950001995FF91EF91BF91AF919F918F917F91E9
:100960006F915F914F913F912F910F900BBE0F9020
:100970000FBE0F901F9018951F920F920FB60F92F7
:1009800011240BB60F922F933F934F935F936F9366
:100990007F938F939F93AF93BF93EF93FF93E091D8
:1009A0000202F09103021995FF91EF91BF91AF916F
:1009B0009F918F917F916F915F914F913F912F9177
:1009C0000F900BBE0F900FBE0F901F9018951F92A7
:1009D0000F920FB60F9211240BB60F922F933F93E5
:1009E0004F935F936F937F938F939F93AF93BF9337
:1009F000EF93FF93E0910002F09101021995FF91AE
:100A0000EF91BF91AF919F918F917F916F915F9186
:100A10004F913F912F910F900BBE0F900FBE0F90F3
:100A20001F9018951F920F920FB60F9211240BB6BC
:100A30000F922F933F934F935F936F937F938F9377
:100A40009F93AF93BF93EF93FF93E0910A02F091CE
:100A50000B021995FF91EF91BF91AF919F918F91EB
:100A60007F916F915F914F913F912F910F900BBEAE
:100A70000F900FBE0F901F9018951F920F920FB6F8
:100A80000F9211240BB60F922F933F934F935F93C6
:100A90006F937F938F939F93AF93BF93EF93FF9346
:100AA000E0910802F09109021995FF91EF91BF9131
:100AB000AF919F918F917F916F915F914F913F91F6
:100AC0002F910F900BBE0F900FBE0F901F90189597
:100AD0001F920F920FB60F9211240BB60F922F9305
:100AE0003F934F935F936F937F938F939F93AF93B6
:100AF000BF93EF93FF93E0910602F09107021995DF
:100B0000FF91EF91BF91AF919F918F917F916F91E5
:100B10005F914F913F912F910F900BBE0F900FBEA1
:100B20000F901F9018951F920F920FB60F921124DD
:100B30000BB60F922F933F934F935F936F937F93D7
:100B40008F939F93AF93BF93EF93FF93E091040232
:100B5000F09105021995FF91EF91BF91AF919F918F
:100B60008F917F916F915F914F913F912F910F9056
:100B70000BBE0F900FBE0F901F9018956115710559
:100B800079F0FB0101900020E9F73197AF01461B96
:100B9000570BDC01ED91FC910280F381E02D19945B
:100BA00080E090E008951F920F920FB60F921124EB
:100BB0000BB60F922F933F934F935F936F937F9357
:100BC0008F939F93AF93BF93EF93FF9386EE92E043
:100BD000E1DBFF91EF91BF91AF919F918F917F9159
:100BE0006F915F914F913F912F910F900BBE0F909E
:100BF0000FBE0F901F9018951F920F920FB60F9275
:100C000011240BB60F922F938F939F93EF93FF9323
:100C1000E091F602F091F7028081E091FC02F09100
:100C2000FD0282FD12C090818091FF028F5F8F7361
:100C300020910003821751F0E091FF02F0E0EA51A9
:100C4000FD4F958F8093FF0201C08081FF91EF914E
:100C50009F918F912F910F900BBE0F900FBE0F9011
:100C60001F9018951F920F920FB60F9211240BB67A
:100C70000F922F933F934F935F936F937F938F9335
:100C80009F93AF93BF93EF93FF93E0911002F09186
:100C900011021995FF91EF91BF91AF919F918F91A3
:100CA0007F916F915F914F913F912F910F900BBE6C
:100CB0000F900FBE0F901F901895CF92DF92EF927A
:100CC000FF920F931F93CF93DF936C017C0187E01A
:100CD000E80EF11CC0E0D0E0062F10E0B8010C2EA9
:100CE00002C0759567950A94E2F76170F7018191EA
:100CF0007F0122D22196C430D10581F7C601DF9150
:100D0000CF911F910F91FF90EF90DF90CF9068CC23
:100D1000CF92DF92EF92FF920F931F93CF93DF93C7
:100D2000EC01F62E642F8C8107D28D818F3F11F05C
:100D300060E002D28F850F2D10E084FF23C06E018A
:100D400087E0C80ED11CE12CF12CB8010E2C02C09A
:100D5000759567950A94E2F76170F60181916F01CC
:100D6000EBD1FFEFEF1AFF0A88E0E816F10469F70C
:100D7000CE01DF91CF911F910F91FF90EF90DF9007
:100D8000CF902ECCB80184E0759567958A95E1F7F0
:100D9000CE0193DF6F2DCE01DF91CF911F910F9187
:100DA000FF90EF90DF90CF9088CF41E0B1DF81E0FE
:100DB00090E008951F920F920FB60F9211240BB678
:100DC0000F922F933F934F935F936F937F938F93E4
:100DD0009F93AF93BF93EF93FF938091B900887F68
:100DE000803609F49CC068F5883209F45BC090F441
:100DF000803109F454C038F4882309F4F2C08830F3
:100E000009F44DC0F1C0883109F44CC0803209F4B6
:100E10005DC0EAC0803409F468C048F4803309F446
:100E200055C0883309F0E0C08093BE02D4C080353D
:100E300009F44FC0883509F45DC0883409F0D4C086
:100E4000D2C0883909F4C3C0A8F4883709F467C050
:100E500038F4883609F463C0803709F460C0C4C030
:100E6000883809F4B4C0803909F45FC0803809F0CB
:100E7000BBC05BC0803B09F484C038F4803A09F4FD
:100E800066C0883A09F47DC0AFC0803C09F4A3C0B5
:100E9000883C09F4A0C0883B09F486C0A5C08091B5
:100EA000E40210C09091E3028091E202981770F57D
:100EB000E091E30281E08E0F8093E302F0E0EE53D5
:100EC000FD4F80818093BB0085EC82C08093BE0281
:100ED0008AC0E091E30281E08E0F8093E30280916B
:100EE000BB00F0E0EE53FD4F80839091E3028091D0
:100EF000E2026AC0E091E30281E08E0F8093E30298
:100F00008091BB00F0E0EE53FD4F80838091C102E1
:100F1000811169C081E08093C00284EA5DC083E0F2
:100F20008093BF021092BD02CFCF8091BD0280326C
:100F300008F04DC0E091BD0281E08E0F8093BD02AC
:100F40008091BB00F0E0E356FD4F8083BDCF85EC80
:100F50008093BC001092BF028091BD02803230F4B9
:100F6000E091BD02F0E0E356FD4F10826091BD02BA
:100F700070E08DE992E0E0E0F0E019951092BD029A
:100F800033C084E08093BF0210929C0210929B02B7
:100F9000E0E0F0E0199580919B02811105C081E0AD
:100FA00080939B0210927B02E0919C0281E08E0F65
:100FB00080939C02F0E0E558FD4F80818093BB0058
:100FC00090919C0280919B02981708F47DCF85E850
:100FD0008093BC0009C085EC8093BC001092BF02D6
:100FE00003C01092BE029EDAFF91EF91BF91AF91C4
:100FF0009F918F917F916F915F914F913F912F9131
:101000000F900BBE0F900FBE0F901F90189590E0A1
:10101000FC013197E231F10508F04DC08827EC570B
:10102000FF4F8F4F26C4809180008F7703C080913F
:1010300080008F7D80938000089580918000877F5D
:10104000F9CF84B58F7702C084B58F7D84BD0895B4
:101050008091B0008F7703C08091B0008F7D809326
:10106000B0000895809190008F7707C08091900024
:101070008F7D03C080919000877F809390000895BA
:101080008091A0008F7707C08091A0008F7D03C062
:101090008091A000877F8093A00008958091200117
:1010A0008F7707C0809120018F7D03C08091200140
:1010B000877F80932001089540E0682F83E893E0C4
:1010C00027CE81E0F9DF8BE39FE10197F1F70895E7
:1010D000E1E0809196038111E0E0E195F0E0ED57C9
:1010E000FC4F84898068E8CFCF93DF93282F30E0CE
:1010F000F901EA5FFD4F8491F901E054FE4FD4916C
:10110000F901E658FE4FC491CC2389F081117FDFAD
:10111000EC2FF0E0EE0FFF1FE05AFE4FA591B491C7
:10112000EC91ED2381E090E021F480E002C080E0CA
:1011300090E0DF91CF9108951F93CF93DF93282FF5
:1011400030E0F901EA5FFD4F8491F901E054FE4F70
:10115000D491F901E658FE4FC491CC23B9F0162F73
:10116000811155DFEC2FF0E0EE0FFF1FEA5BFE4F21
:10117000A591B4919FB7F894111104C08C91D095AA
:10118000D82302C0EC91DE2BDC939FBFDF91CF917F
:101190001F910895CF93DF9390E0FC01E054FE4F40
:1011A0002491FC01E658FE4F8491882361F190E080
:1011B000880F991FFC01E45DFE4FC591D491FC019D
:1011C000EA5BFE4FA591B491611109C09FB7F894F5
:1011D0008881209582238883EC912E230BC0623076
:1011E00061F49FB7F8948881322F309583238883E8
:1011F000EC912E2B2C939FBF06C08FB7F894E881FB
:101200002E2B28838FBFDF91CF910895CF93DF934B
:10121000823028F09091920398609093920380938B
:1012200096031092970380E48093980380E1809363
:10123000990380E580939A0361E080918703AADF98
:10124000809188038F3F11F061E0A4DF61E080911D
:101250008903A0DFC3E8D3E09E0123583340809187
:10126000920384FD03C084E090E002C088E090E037
:1012700021962817390724F461E08E818BDFECCFAB
:101280008BE39DE00197F1F760E08091870354DFE5
:1012900060E08091890350DF809188038F3F11F0D7
:1012A00060E04ADF8091920384FD1CC063E083E824
:1012B00093E003DDCBE4D6E4CE010197F1F763E0E0
:1012C00083E893E0FADC2197F1F763E083E893E0A9
:1012D000F4DC83E592E00197F1F762E083E893E0C4
:1012E000ECDC12C08062E8DE8BE496E40197F1F753
:1012F000809192038062E0DE83E592E00197F1F74E
:10130000809192038062D8DE809192038062D4DE65
:1013100084E0809393038CE0CFDED3DE82E0809381
:10132000940386E0DF91CF91C7CE1F920F920FB644
:101330000F9211242F933F938F939F93AF93BF935B
:101340008091A0039091A103A091A203B091A30367
:1013500030919F0323E0230F2D3720F40196A11D28
:10136000B11D05C026E8230F0296A11DB11D2093D3
:101370009F038093A0039093A103A093A203B09333
:10138000A30380919B0390919C03A0919D03B09136
:101390009E030196A11DB11D80939B0390939C0316
:1013A000A0939D03B0939E03BF91AF919F918F91A6
:1013B0003F912F910F900FBE0F901F901895CF93D4
:1013C000DF93CDB7DEB7A1970FB6F894DEBF0FBE9F
:1013D000CDBF789484B5826084BD84B5816084BDBE
:1013E00085B5826085BD85B5816085BD80916E00C3
:1013F000816080936E0010928100809181008260F4
:101400008093810080918100816080938100809130
:1014100080008160809380008091B100846080931F
:10142000B1008091B00081608093B0008091910004
:1014300082608093910080919100816080939100FF
:10144000809190008160809390008091A1008260E3
:101450008093A1008091A10081608093A100809180
:10146000A00081608093A000809121018260809320
:1014700021018091210181608093210180912001CF
:1014800081608093200180917A00846080937A004B
:1014900080917A00826080937A0080917A008160E6
:1014A00080937A0080917A00806880937A0010920D
:1014B000C10062E086E16EDE62E087E16BDE62E041
:1014C00084E168DE62E085E165DE62E082E162DEA1
:1014D00062E083E15FDE62E082E05CDE62E08FE09A
:1014E00059DE62E083E056DE02E112E08EE1E82E92
:1014F00082E0F82E61E0F80181918F014BDEE01669
:10150000F106C1F78FE093E090930B0280930A02FB
:10151000809169008F73806880936900EB9A83E003
:1015200093E09093090280930802809169008F7C78
:10153000806280936900EA9A8FE594E090930102BB
:101540008093000280916A008C7F826080936A00A1
:10155000EC9A89E093E090930302809302028091D9
:101560006A00837F886080936A00ED9A80E18093AF
:1015700081001092800080E49FE190938700809327
:10158000860081E1809381008AE193E090931102CB
:101590008093100281E080936F00E091F602F09159
:1015A000F70282E08083E091F202F091F302108270
:1015B000E091F402F091F5028FEC80831092FE022C
:1015C000E091FA02F091FB0286E08083E091F8025C
:1015D000F091F902808180618083E091F802F091BE
:1015E000F902808188608083E091F802F091F9022D
:1015F000808180688083E091F802F091F902808117
:101600008F7D808382E002DE86E16EDD892B09F02A
:101610004EC057DD1092E5028091E50219A2805D6F
:1016200088A3BE01605E7F4F86EE92E0A7DA6EE48B
:1016300072E086EE92E0A2DA8091E502811115C097
:1016400047DD61E572E083E893E098DA60E08EE0E0
:1016500073DD61E08BE170DD60E08AE16DDD61E00A
:101660008CE16ADD60E08DE167DD8091E502882331
:10167000C1F02EDD61E672E083E893E07FDA61E09D
:101680008EE05ADD61E089E157DD60E08BE154DDF9
:1016900060E08AE151DD60E08CE14EDD61E08DE1EA
:1016A0004BDD87E121DD892B09F0B6CF3DC009DD97
:1016B0008091E502882319F061E08EE13DDD8091A3
:1016C000E502811113C0FDDC61E085E063DD60E0CF
:1016D00085E032DD60E08BE12FDD61E08AE12CDD29
:1016E00061E08CE129DD60E08DE126DD8091E5029D
:1016F0008823A9F0EDDC6FE672E083E893E03EDA40
:1017000060E08EE019DD60E08BE116DD61E08AE1EA
:1017100013DD61E08CE110DD60E08DE10DDD86E13F
:10172000E3DC892B09F0CBCF0E9459026DCFE6EEA6
:10173000F2E01382128288EE93E0A0E0B0E08483AE
:101740009583A683B78322E232E03183208325ECA0
:1017500030E03587248724EC30E03787268720EC7B
:1017600030E0318B208B21EC30E0338B228B22EC6C
:1017700030E0358B248B26EC30E0378B268B118EB6
:10178000128E138E148EE4EAF3E0138212828483A5
:101790009583A683B78384E392E091838083E3E813
:1017A000F3E01382128286E492E0918380838CE0DE
:1017B00084838FEF85838BE086838AE0878389E04B
:1017C000808788E0818787E0828713861486158664
:1017D0001686178681E01ACD052E97FB16F4009425
:1017E0000FD057FD05D014D007FC02D046F408C036
:1017F00050954095309521953F4F4F4F5F4F08953D
:1018000090958095709561957F4F8F4F9F4F08956C
:10181000A1E21A2EAA1BBB1BFD010DC0AA1FBB1FF4
:10182000EE1FFF1FA217B307E407F50720F0A21B66
:10183000B30BE40BF50B661F771F881F991F1A94D3
:1018400069F760957095809590959B01AC01BD01FD
:10185000CF010895A29FB001B39FC001A39F700D57
:10186000811D1124911DB29F700D811D1124911DA8
:101870000895EE0FFF1F881F8BBF0790F691E02D94
:101880001994E8DFB7FF0895821B930B0895F8942D
:02189000FFCF88
:101892005901590159015901590159015901590176
:1018A20091021D1C1B1A190E0406051E181F0000AA
:1018B2000000EC015A0184013802B5019301A7012D
:1018C20000000000DC02D202ED02C402CB02C80218
:1018D200C50200000000D5065A01ED02EC020D0A15
:1018E20000526561647920202020202020202020C1
:1018F200004465616420736C6F772041484400495D
:0A1902004E5445524C4F434B000079
:00000001FF
