:1000000007C1000035C5000008C50000DBC40000C2
:10001000AEC4000081C4000054C4000027C4000026
:10002000FAC3000023C1000021C100001FC100006D
:100030001DC100001BC1000019C1000017C1000054
:1000400015C1000013C1000011C100000FC1000064
:100050000DC100000BC1000009C1000092C30000E7
:1000600005C1000059C500002EC50000FFC00000FA
:10007000FDC00000FBC00000F9C00000F7C0000098
:10008000F5C00000F3C00000F1C00000EFC00000A8
:10009000EDC00000EBC00000E9C00000E7C00000B8
:1000A000E5C00000E3C00000E1C00000DFC00000C8
:1000B000DDC00000DBC00000D9C00000D7C00000D8
:1000C000D5C00000D3C00000D1C00000CFC00000E8
:1000D000CDC00000CBC00000C9C00000C7C00000F8
:1000E000C5C000008401870176017A017E01BE014E
:1000F0008B018F01950199019D01A301A701AB011E
:10010000BE01B101B501B90100000A0B02090C0DD5
:100110000E080703040100000000000000000000BA
:1001200000000000000000000000000000000000CF
:10013000000000001211100000000000000000008C
:1001400000000000000000000000000000000000AF
:100150002200250028002B002E003100340002016F
:100160000000050108010B01000021002400270008
:100170002A002D00300033000101000004010701B6
:100180000A0105050505070508080808020202021C
:100190000A0A080804040404010101010101010123
:1001A0000303030303030303040707070C0C0C0CEE
:1001B0000C0C0C0C020202020606060606060606D7
:1001C0000B0B0B0B0B0B0B0B010210202008081064
:1001D00020401020408002010201080402010102B7
:1001E0000408102040808040201008040201800490
:1001F00002018040201008040201080402010102EB
:100200000408102040800102040810204080F106FC
:1002100011241FBECFEFD1E2DEBFCDBF00E00CBF87
:1002200012E0A0E0B2E0ECE9FEE000E00BBF02C0AB
:1002300007900D92A632B107D9F722E0A6E2B2E00C
:1002400001C01D92AE3CB207E1F711E0C8E0D1E079
:1002500000E005C021970109802FFE0111D6C730AB
:10026000D10780E00807B1F78DD416C6C9CE90E05B
:10027000FC01E853FE4F2491FC01EE57FE4F8491A0
:10028000882399F090E0880F991FFC01E859FE4FF0
:10029000A591B491FC01E25BFE4F859194918FB7DB
:1002A000F894EC91E22BEC938FBF0895362F90E0F9
:1002B000FC01E85FFE4F4491FC01E853FE4F24919E
:1002C000FC01EE57FE4F9491992309F46BC044232F
:1002D00009F454C050E0FA013197E231F10508F019
:1002E0004DC08827EE58FF4F8F4FCAC580918000C0
:1002F0008F7707C0809180008F7D03C08091800040
:10030000877F809380003AC084B58F7702C084B520
:100310008F7D84BD33C08091B0008F7703C0809102
:10032000B0008F7D8093B00029C0809190008F77BE
:1003300007C0809190008F7D03C080919000877FDF
:10034000809390001BC08091A0008F7707C08091A0
:10035000A0008F7D03C08091A000877F8093A000C4
:100360000DC0809120018F7707C0809120018F7D83
:1003700003C080912001877F80932001E92FF0E066
:10038000EE0FFF1FE25BFE4FA591B4919FB7F8946B
:10039000311104C08C912095282302C0EC912E2BA2
:1003A0002C939FBF08953FB7F89480912D029091B0
:1003B0002E02A0912F02B091300226B5A89B05C055
:1003C0002F3F19F00196A11DB11D3FBFBA2FA92FD4
:1003D000982F8827820F911DA11DB11DBC01CD0151
:1003E00042E0660F771F881F991F4A95D1F708953D
:1003F000109227021092260260E084E057DF60E04E
:1004000085E054DF60E086E051DF60E087E04ECFBA
:100410000895CF92DF92EF92FF920F931F93CF93A5
:10042000DF936C017A018B01C0E0D0E0CE15DF05CF
:1004300081F0D8016D918D01D601ED91FC91019073
:10044000F081E02DC6011995892B11F02196EECF90
:100450007E01C701DF91CF911F910F91FF90EF9027
:10046000DF90CF900895089580E090E00895FC011A
:10047000538D448D252F30E0842F90E0821B930B09
:10048000541710F0CF96089501970895FC01918DAF
:10049000828D981761F0828DDF01A80FB11D5D96E6
:1004A0008C91928D9F5F9F73928F90E008958FEF54
:1004B0009FEF0895FC01918D828D981731F0828D08
:1004C000E80FF11D858D90E008958FEF9FEF08955F
:1004D000FC01918D228D892F90E0805C9F4F821BC3
:1004E00091098F739927089581E392E0F1DF21E06C
:1004F000892B09F420E0822F0895FC01848DDF010F
:10050000A80FB11DA35ABF4F2C91848D90E0019686
:100510008F739927848FA689B7892C93A089B18975
:100520008C91837080648C93938D848D981306C016
:100530000288F389E02D80818F7D80830895EF927A
:10054000FF920F931F93CF93DF93EC0181E0888F8D
:100550009B8D8C8D981305C0E889F989808185FD74
:1005600025C0F62E0B8D10E00F5F1F4F0F73112764
:10057000E02E8C8DE8120BC00FB607FCFACFE8898D
:10058000F989808185FFF5CFCE01B7DFF2CF8B8D62
:10059000FE01E80FF11DE35AFF4FF0829FB7F89478
:1005A0000B8FEA89FB89808180620AC09FB7F8942B
:1005B000EE89FF896083E889F9898081837080648E
:1005C00080839FBF81E090E0DF91CF911F910F91D9
:1005D000FF90EF900895CF93DF93EC01888D8823EF
:1005E000C1F0EA89FB89808185FD05C0A889B989A8
:1005F0008C9186FD0EC00FB607FCF5CF808185FF7C
:10060000F2CFA889B9898C9185FFEDCFCE0175DF36
:10061000E8CFDF91CF91089580E090E0892B19F029
:1006200063DF811125C080E090E0892B41F080E0FC
:1006300090E0892B21F00E94000081111CC080E015
:1006400090E0892B41F080E090E0892B21F00E941E
:100650000000811113C080E090E0892BA1F080E0C0
:1006600090E0892B81F00E94000081110AC008955A
:100670000E940000D8CF0E940000E1CF0E9400003D
:10068000EACF0C94000008958F929F92AF92BF9290
:100690000F931F93CF93DF93CDB7DEB7A1970FB61C
:1006A000F894DEBF0FBECDBF19A2423008F44AE075
:1006B0008E010F5D1F4F842E912CA12CB12CA50112
:1006C0009401BCD3E62FB901CA0101501109EA30E7
:1006D00014F4E05D01C0E95CD801EC93232B242BDA
:1006E000252B69F70115110569F0F801019000202B
:1006F000E9F73197AF01401B510BB80181E392E05C
:1007000088DE02C080E090E0A1960FB6F894DEBFCC
:100710000FBECDBFDF91CF911F910F91BF90AF90D2
:100720009F908F900895CF92DF92EF92FF92CF9398
:10073000DF936C01990FEE08FF08F7FE17C06DE21A
:1007400081E392E0FCDEEC0166277727CB016C1990
:100750007D098E099F094AE097DF8C0F9D1FDF916D
:10076000CF91FF90EF90DF90CF9008954AE0C701BE
:10077000B601DF91CF91FF90EF90DF90CF9084CFC3
:1007800087D31F920F920FB60F9211242F933F938E
:100790008F939F93AF93BF938091290290912A02E8
:1007A000A0912B02B0912C023091280223E0230F5C
:1007B0002D3720F40196A11DB11D05C026E8230F99
:1007C0000296A11DB11D20932802809329029093C7
:1007D0002A02A0932B02B0932C0280912D029091BB
:1007E0002E02A0912F02B09130020196A11DB11DE1
:1007F00080932D0290932E02A0932F02B09330028B
:10080000BF91AF919F918F913F912F910F900FBE0C
:100810000F901F9018951F920F920FB60F921124F0
:100820000BB60F922F933F934F935F936F937F93EA
:100830008F939F93AF93BF93EF93FF93E0910E023B
:10084000F0910F021995FF91EF91BF91AF919F9198
:100850008F917F916F915F914F913F912F910F9069
:100860000BBE0F900FBE0F901F9018951F920F9206
:100870000FB60F9211240BB60F922F933F934F9305
:100880005F936F937F938F939F93AF93BF93EF93F8
:10089000FF93E0910C02F0910D021995FF91EF91F9
:1008A000BF91AF919F918F917F916F915F914F9188
:1008B0003F912F910F900BBE0F900FBE0F901F9086
:1008C00018951F920F920FB60F9211240BB60F922C
:1008D0002F933F934F935F936F937F938F939F9348
:1008E000AF93BF93EF93FF93E0910202F091030265
:1008F0001995FF91EF91BF91AF919F918F917F914A
:100900006F915F914F913F912F910F900BBE0F9080
:100910000FBE0F901F9018951F920F920FB60F9257
:1009200011240BB60F922F933F934F935F936F93C6
:100930007F938F939F93AF93BF93EF93FF93E09138
:100940000002F09101021995FF91EF91BF91AF91D3
:100950009F918F917F916F915F914F913F912F91D7
:100960000F900BBE0F900FBE0F901F9018951F9207
:100970000F920FB60F9211240BB60F922F933F9345
:100980004F935F936F937F938F939F93AF93BF9397
:10099000EF93FF93E0910A02F0910B021995FF91FA
:1009A000EF91BF91AF919F918F917F916F915F91E7
:1009B0004F913F912F910F900BBE0F900FBE0F9054
:1009C0001F9018951F920F920FB60F9211240BB61D
:1009D0000F922F933F934F935F936F937F938F93D8
:1009E0009F93AF93BF93EF93FF93E0910802F09131
:1009F00009021995FF91EF91BF91AF919F918F914E
:100A00007F916F915F914F913F912F910F900BBE0E
:100A10000F900FBE0F901F9018951F920F920FB658
:100A20000F9211240BB60F922F933F934F935F9326
:100A30006F937F938F939F93AF93BF93EF93FF93A6
:100A4000E0910602F09107021995FF91EF91BF9195
:100A5000AF919F918F917F916F915F914F913F9156
:100A60002F910F900BBE0F900FBE0F901F901895F7
:100A70001F920F920FB60F9211240BB60F922F9365
:100A80003F934F935F936F937F938F939F93AF9316
:100A9000BF93EF93FF93E0910402F0910502199543
:100AA000FF91EF91BF91AF919F918F917F916F9146
:100AB0005F914F913F912F910F900BBE0F900FBE02
:100AC0000F901F9018951F920F920FB60F9211243E
:100AD0000BB60F922F933F934F935F936F937F9338
:100AE0008F939F93AF93BF93EF93FF9381E392E034
:100AF00004DDFF91EF91BF91AF919F918F917F9115
:100B00006F915F914F913F912F910F900BBE0F907E
:100B10000FBE0F901F9018951F920F920FB60F9255
:100B200011240BB60F922F938F939F93EF93FF9304
:100B3000E0914102F09142028081E0914702F09100
:100B4000480282FD12C0908180914A028F5F8F73AC
:100B500020914B02821751F0E0914A02F0E0EF5CE5
:100B6000FD4F958F80934A0201C08081FF91EF91E4
:100B70009F918F912F910F900BBE0F900FBE0F90F2
:100B80001F901895789484B5826084BD84B5816087
:100B900084BD85B5826085BD85B5816085BD809148
:100BA0006E00816080936E001092810080918100C0
:100BB00082608093810080918100816080938100B8
:100BC000809180008160809380008091B10084607A
:100BD0008093B1008091B00081608093B0008091DB
:100BE0009100826080939100809191008160809358
:100BF0009100809190008160809390008091A1008D
:100C000082608093A1008091A10081608093A10007
:100C10008091A00081608093A0008091210182607A
:100C20008093210180912101816080932101809135
:100C3000200181608093200180917A0084608093FC
:100C40007A0080917A00826080937A0080917A00A5
:100C5000816080937A0080917A00806880937A0026
:100C60001092C100E0914102F091420282E0808343
:100C7000E0913D02F0913E021082E0913F02F0913E
:100C800040028FEC808310924902E0914502F0917E
:100C9000460286E08083E0914302F0914402808125
:100CA00080618083E0914302F091440280818860FA
:100CB0008083E0914302F0914402808180688083C8
:100CC000E0914302F091440280818F7D808384E033
:100CD000CEDA85E0CCDA86E0CADA87E0C8DA88EFD7
:100CE00091E0909301028093000280916A008C7FD2
:100CF000826080936A00EC9A80912602909127028C
:100D00008170992710DD809126028695817090E090
:100D10000ADD8091260282FB882780F990E003DDBE
:100D20008091260283FB882780F990E0FCDC80918B
:100D300026028295817090E0F6DC8091260285FB88
:100D4000882780F990E0EFDC8091260286FB8827D7
:100D500080F990E0E8DC8091260287FB882780F903
:100D600090E0E1DC42E050E062E272E081E392E098
:100D700050DB19DB6B017C0188EE882E83E0982E16
:100D8000A12CB12C10DBDC01CB018C199D09AE0923
:100D9000BF09883E9340A105B105A0F321E0821A66
:100DA0009108A108B10888EEC80E83E0D81EE11CA6
:100DB000F11C81149104A104B10421F78091260251
:100DC0009091270201968F3F910529F09093270279
:100DD0008093260204C010922702109226021CDC87
:100DE0008BCFE1E3F2E01382128288EE93E0A0E081
:100DF000B0E084839583A683B78384E192E09183F6
:100E0000808385EC90E09587848784EC90E09787D9
:100E1000868780EC90E0918B808B81EC90E0938BC7
:100E2000828B82EC90E0958B848B86EC90E0978BA4
:100E3000868B118E128E138E148E0895A1E21A2EB7
:100E4000AA1BBB1BFD010DC0AA1FBB1FEE1FFF1F6E
:100E5000A217B307E407F50720F0A21BB30BE40BBE
:100E6000F50B661F771F881F991F1A9469F7609505
:100E70007095809590959B01AC01BD01CF010895BF
:100E8000EE0FFF1F881F8BBF0790F691E02D19947E
:0C0E900081E090E0F89400C0F894FFCFDF
:100E9C0008020802080208020802080208020802F6
:100EAC00000000009F0209023702EB0268024602B2
:060EBC005A020D0A0000BD
:00000001FF
