:100000000C945D000C9485000C9485000C94850084
:100010000C9485000C9485000C9485000C9485004C
:100020000C9485000C9485000C9485000C94550468
:100030000C9485000C9485000C9485000C9485002C
:100040000C94B3030C9485000C9423040C94FD03CE
:100050000C9485000C9485000C9485000C9485000C
:100060000C9485000C94850000000008000201003B
:100070000003040700000000000000000000000072
:10008000250028002B0000000000240027002A0083
:10009000040404040404040402020202020203032E
:1000A0000303030301020408102040800102040836
:1000B00010200102040810202C0511241FBECFEFD0
:1000C000D8E0DEBFCDBF11E0A0E0B1E0E8E4F2E1AE
:1000D00002C005900D92A235B107D9F722E0A2E542
:1000E000B1E001C01D92AD32B207E1F710E0CDE5FD
:1000F000D0E004C02197FE010E941C09CC35D10735
:10010000C9F70E9464050C9422090C94000090E049
:10011000FC01EC55FF4F249180579F4FFC018491C7
:10012000882399F090E0880F991FFC01EA57FF4F50
:10013000A591B491FC01E458FF4F859194918FB73C
:10014000F894EC91E22BEC938FBF089590E0FC01C2
:10015000E859FF4F2491FC01EC55FF4F3491FC010D
:10016000E057FF4FE491EE23C9F0222339F023300A
:1001700001F1A8F4213019F1223029F1F0E0EE0F5D
:10018000FF1FE458FF4FA591B4918FB7F894EC91FD
:10019000611126C030953E233C938FBF08952730D0
:1001A000A9F02830C9F0243049F7809180008F7D74
:1001B00003C0809180008F7780938000DFCF84B56B
:1001C0008F7784BDDBCF84B58F7DFBCF8091B0006E
:1001D0008F778093B000D2CF8091B0008F7DF9CF20
:1001E0003E2BDACF8E3008F08E508770806480937B
:1001F0007C0080917A00806480937A0080917A00FC
:1002000086FDFCCF809178009091790008953FB7EA
:10021000F8948091830190918401A0918501B0911F
:10022000860126B5A89B05C02F3F19F00196A11D98
:10023000B11D3FBFBA2FA92F982F8827BC01CD0130
:10024000620F711D811D911D42E0660F771F881F8F
:10025000991F4A95D1F708958F929F92AF92BF92BE
:10026000CF92DF92EF92FF924B015C010E94070157
:100270006B017C010E9407016C197D098E099F09A1
:10028000683E734081059105A8F321E0821A910828
:10029000A108B10888EEC80E83E0D81EE11CF11C4D
:1002A00081149104A104B10429F7FF90EF90DF902D
:1002B000CF90BF90AF909F908F900895AF92BF92D4
:1002C000CF92DF92EF92FF920F931F93CF93DF9322
:1002D0006C017B018B01040F151FEB015E01AE1851
:1002E000BF08C017D10759F06991D601ED91FC9173
:1002F0000190F081E02DC6010995892B79F7C501A0
:10030000DF91CF911F910F91FF90EF90DF90CF90F1
:10031000BF90AF900895FC01538D448D252F30E0A0
:10032000842F90E0821B930B541710F0CF96089502
:1003300001970895FC01918D828D981761F0A28D2F
:10034000AE0FBF2FB11D5D968C91928D9F5F9F73F5
:10035000928F90E008958FEF9FEF0895FC01918DAB
:10036000828D981731F0828DE80FF11D858D90E018
:1003700008958FEF9FEF0895FC01918D228D892FB5
:1003800090E0805C9F4F821B91098F73992708959D
:1003900087E891E00E94BC0121E0892B09F420E06C
:1003A000822F089580E090E0892B29F00E94C801F7
:1003B00081110C9400000895FC01A48DA80FB92FA1
:1003C000B11DA35ABF4F2C91848D90E001968F737D
:1003D0009927848FA689B7892C93A089B1898C919C
:1003E000837080648C93938D848D981306C00288EB
:1003F000F389E02D80818F7D80830895EF92FF92B5
:100400000F931F93CF93DF93EC0181E0888F9B8D37
:100410008C8D98131AC0E889F989808185FF15C0F1
:100420009FB7F894EE89FF896083E889F989808114
:100430008370806480839FBF81E090E0DF91CF91E3
:100440001F910F91FF90EF900895F62E0B8D10E005
:100450000F5F1F4F0F731127E02E8C8D8E110CC074
:100460000FB607FCFACFE889F989808185FFF5CFBF
:10047000CE010E94DC01F1CFEB8DEC0FFD2FF11DC1
:10048000E35AFF4FF0829FB7F8940B8FEA89FB89FC
:1004900080818062CFCFCF93DF93EC01888D88235A
:1004A000B9F0AA89BB89E889F9898C9185FD03C0D7
:1004B000808186FD0DC00FB607FCF7CF8C9185FFBC
:1004C000F2CF808185FFEDCFCE010E94DC01E9CF24
:1004D000DF91CF9108958F929F92AF92BF92FF923A
:1004E0000F931F93CF93DF93FC01F0808BE08F1568
:1004F00008F44AC0828108E512E0081B110987FD53
:100500001395000F111F000F111F8181C8E8D0E063
:10051000C81BD10987FDD395CC0FDD1FCC0FDD1F84
:100520004E010D2E000CAA08BB089801012E000CEC
:10053000440B550B281939094A095B09DB010E9454
:10054000D00824EB30E040E050E00E94A608820E84
:10055000931EA41EB51E8C169D062CF0E801801675
:1005600091060CF4E4012297CC0FDD1F2FB7F8940D
:100570008F2D90E0FC01EE0FFF1FE80FF91FEC5AE2
:10058000FE4FD283C1832FBFDF91CF911F910F9177
:10059000FF90BF90AF909F908F9008951F93CF933F
:1005A000DF93EC01162F88818C3008F04DC0862F28
:1005B0000E9487008881282F30E0F901EE0FFF1F8D
:1005C000E20FF31FEC5AFE4F1F736081607C612BBA
:1005D000608319821A822CE0622F0E940909829F8F
:1005E000B001112430E020E0AB01420F531FFA01AB
:1005F000EE0FFF1FE40FF51FEC5AFE4F908196FDA2
:1006000016C02F5F3F4F2C30310571F781110FC09D
:100610001092800082E080938100109285001092F9
:100620008400B19A80916F00826080936F00E881AE
:100630008E2F90E0FC01EE0FFF1FE80FF91FEC5A20
:10064000FE4F8081806480838881DF91CF911F91EC
:100650000895FC0101900020E9F73197AF01481B94
:10066000590BBC0187E891E00C945E018F929F9238
:10067000AF92BF920F931F93CF93DF93CDB7DEB7A7
:10068000A1970FB6F894DEBF0FBECDBF19A24230BE
:1006900008F44AE08E010F5D1F4F842E912CB12C7F
:1006A000A12CA50194010E94D808E62FB901CA0126
:1006B000EA30F4F4E05DD801EE938D01232B242B76
:1006C000252B79F790E080E0109719F0CD010E947A
:1006D0002903A1960FB6F894DEBF0FBECDBFDF9100
:1006E000CF911F910F91BF90AF909F908F900895E1
:1006F000E95CE1CFCF92DF92EF92FF92CF93DF934D
:100700006B017C016DE287E891E00E94FE01EC0143
:1007100066277727CB016C197D098E099F094AE06E
:100720000E9436038C0F9D1FDF91CF91FF90EF90B9
:10073000DF90CF900895CF93DF930E942903EC01BF
:1007400082E191E00E9429038C0F9D1FDF91CF91E0
:100750000895BC01990F880B990B97FD0C947A03AF
:100760004AE00C9436031F920F920FB60F92112499
:100770002F933F938F939F93AF93BF9380917F016C
:1007800090918001A0918101B091820130917E0110
:1007900023E0230F2D3758F50196A11DB11D20939D
:1007A0007E0180937F0190938001A0938101B0939B
:1007B00082018091830190918401A0918501B09183
:1007C00086010196A11DB11D809383019093840140
:1007D000A0938501B0938601BF91AF919F918F91B6
:1007E0003F912F910F900FBE0F901F90189526E804
:1007F000230F0296A11DB11DD2CF1F920F920FB6EB
:100800000F9211242F933F934F935F936F937F9396
:100810008F939F93AF93BF93EF93FF9387E891E0FC
:100820000E94DC01FF91EF91BF91AF919F918F9159
:100830007F916F915F914F913F912F910F900FBEDC
:100840000F901F9018951F920F920FB60F921124C0
:100850002F938F939F93EF93FF93E0919701F091E4
:1008600098018081E0919D01F0919E0182FD1BC065
:1008700090818091A0018F5F8F732091A1018217D9
:1008800041F0E091A001F0E0E957FE4F958F809391
:10089000A001FF91EF919F918F912F910F900FBE2B
:1008A0000F901F9018958081F4CF1F920F920FB672
:1008B0000F9211242F933F934F935F936F937F93E6
:1008C0008F939F93AF93BF93CF93DF93EF93FF9358
:1008D00080915201C0915301D0E087FF24C0109253
:1008E000850010928400809152018F5F80935201A5
:1008F00080915201082E000C990B8C179D0724F44F
:10090000809152018C30C4F18091840090918500D7
:10091000049680349C4908F47AC0809184009091B8
:100920008500049676C080915201082E000C990B28
:100930008C179D07C4F6E09152018E2FEE0F990B94
:10094000FC01EE0FFF1FE80FF91FEC5AFE4F8081EC
:1009500086FFC9CFE09152018E2FEE0F990BFC015B
:10096000EE0FFF1FE80FF91FEC5AFE4F808160E089
:100970008F730E94A600B7CF20918400309185002C
:10098000E09152018E2FEE0F990BFC01EE0FFF1F2D
:10099000E80FF91FEC5AFE4F81819281820F931F5D
:1009A0009093890080938800E09152018E2FEE0F82
:1009B000990BFC01EE0FFF1FE80FF91FEC5AFE4FD9
:1009C000808186FF11C0E09152018E2FEE0F990BAE
:1009D000FC01EE0FFF1FE80FF91FEC5AFE4F80815C
:1009E00061E08F730E94A600FF91EF91DF91CF919C
:1009F000BF91AF919F918F917F916F915F914F9137
:100A00003F912F910F900FBE0F901F90189580E48B
:100A10009CE990938900809388008FEF8093520126
:100A2000E3CFFC01909153019C3098F481E0890F51
:100A3000809353019083892F90E0FC01EE0FFF1FFC
:100A4000E80FF91FEC5AFE4F88EB9BE092838183FD
:100A500008958FEF80830895E7E8F1E01382128212
:100A600088EE93E0A0E0B0E084839583A683B7830B
:100A700084E091E09183808385EC90E09587848782
:100A800084EC90E09787868780EC90E0918B808B58
:100A900081EC90E0938B828B82EC90E0958B848B41
:100AA00086EC90E0978B868B118E128E138E148EAF
:100AB0008AE292E00E94110587E292E00E9411050D
:100AC00084E292E00C941105789484B5826084BD30
:100AD00084B5816084BD85B5826085BD85B5816042
:100AE00085BD80916E00816080936E0010928100C0
:100AF000809181008260809381008091810081607B
:100B0000809381008091800081608093800080913B
:100B1000B10084608093B1008091B00081608093C7
:100B2000B00080917A00846080937A0080917A008E
:100B3000826080937A0080917A00816080937A004D
:100B400080917A00806880937A001092C10083E0DF
:100B50000E94870084E00E94870085E00E94870051
:100B600088E00E94870060E083E00E94A60060E0C9
:100B700084E00E94A60060E085E00E94A60060E09C
:100B800088E00E94A60069E070E08AE292E00E949C
:100B9000CE026AE070E087E292E00E94CE026BE053
:100BA00070E084E292E00E94CE026FE070E08AE2A0
:100BB00092E00E946B026EE170E087E292E00E9498
:100BC0006B0265E070E084E292E00E946B0264E6F2
:100BD00070E080E090E00E942C01E0919701F0919C
:100BE000980182E08083E0919301F091940110825A
:100BF000E0919501F09196018FEC808310929F0116
:100C0000E0919B01F0919C0186E08083E091990145
:100C1000F0919A01808180618083E0919901F09147
:100C20009A01808188608083E0919901F0919A0116
:100C3000808180688083E0919901F0919A018081A0
:100C40008F7D808368EE73E080E090E00E942C014D
:100C500044244A9423E0522E612C712C35EF232E2C
:100C6000312C0EEE10E0C1EFD0E043EF842E912C3A
:100C700059EEE52EF12C9BEEC92ED12C80E0A82E4A
:100C800080E0B82E61E083E00E94A60066E970E093
:100C900080E090E00E942C018EE00E94F2002FEF95
:100CA00030E0DC010E941509A30192010E94A60810
:100CB00030937D0120937C01C9010E94A90360E06B
:100CC00083E00E94A60066E970E080E090E00E9468
:100CD0002C0161E084E00E94A60066E970E080E0FB
:100CE00090E00E942C018EE00E94F2002FEF30E095
:100CF000DC010E941509A30192010E94A60830930D
:100D00007B0120937A0185E191E00E942903809183
:100D10007A0190917B010E94A90360E084E00E9427
:100D2000A60066E970E080E090E00E942C0161E09E
:100D300085E00E94A60066E970E080E090E00E94F5
:100D40002C018EE00E94F2002FEF30E0DC010E94C7
:100D50001509A30192010E94A608309379012093FE
:100D6000780185E191E00E942903609178017091FA
:100D70007901072E000C880B990B97FFD9C00E94B0
:100D80007A0382E191E00E94290360E085E00E94FD
:100D9000A60066E970E080E090E00E942C0180915E
:100DA0007C0190917D019C01255F3109863F910571
:100DB0001CF49101281B390B233031050CF0C6C0FF
:100DC00020917A0130917B012C3E31050CF4B4C0A6
:100DD0002B5E3109233031050CF0B8C02091780129
:100DE000309179012A3E31050CF4ABC0295E3109FE
:100DF000233031050CF0AAC087E191E00E949B03EB
:100E000061E088E00E94A6006CED75E080E090E073
:100E10000E942C016DE270E08AE292E00E946B0277
:100E200068EE73E080E090E00E942C0160E088E0D2
:100E30000E94A60064EF71E080E090E00E942C0127
:100E400068E270E087E292E00E946B0268EE73E075
:100E500080E090E00E942C016FE070E08AE292E076
:100E60000E946B0268EE73E080E090E00E942C012B
:100E700068E070E087E292E00E946B0268EE73E047
:100E800080E090E00E942C0168E770E084E292E04C
:100E90000E946B0268EE73E080E090E00E942C01FB
:100EA0006EE170E087E292E00E946B0268EE73E010
:100EB00080E090E00E942C016DE270E08AE292E016
:100EC0000E946B0268EE73E080E090E00E942C01CB
:100ED00068E070E087E292E00E946B0268EE73E0E7
:100EE00080E090E00E942C016FE070E08AE292E0E6
:100EF0000E946B0268EE73E080E090E00E942C019B
:100F000065E070E084E292E00E946B0260ED77E0C1
:100F100080E090E00E942C01A114B10409F4B2CE4B
:100F20000E94C801882309F4A9CE0E940000A3CE24
:100F30004AE00E94360325CFA601421B530B9A01BB
:100F400049CFA701421B530B9A0152CF9C01215F4D
:100F50003109823F91051CF49E01281B390B233077
:100F600031050CF071C020917A0130917B01243F52
:100F700031050CF45FC0235F3109233031050CF0DB
:100F800063C02091780130917901223F31050CF442
:100F900056C0215F3109233031050CF055C084E281
:100FA00091E00E949B0361E088E00E94A6006CED46
:100FB00075E080E090E00E942C016DE270E08AE232
:100FC00092E00E946B0268EE73E080E090E00E9485
:100FD0002C0160E088E00E94A60064EF71E080E0F0
:100FE00090E00E942C0168E270E087E292E00E94AB
:100FF0006B0268EE73E080E090E00E942C016FE0ED
:1010000070E08AE292E00E946B0268EE73E080E09A
:1010100090E00E942C0168E070E087E292E00E947C
:101020006B0268EE73E080E090E00E942C0166E9BC
:1010300070E02CCFA401421B530B9A019ECFAE014E
:10104000421B530B9A01A7CF8F3E91050CF46AC047
:101050008E5E910903970CF074C080917A01909193
:101060007B01823F91050CF462C0815F9109039777
:101070000CF067C080917801909179018F3E9105C5
:101080000CF45AC08E5E910903970CF05AC080E3AD
:1010900091E00E949B0361E088E00E94A6006CED55
:1010A00075E080E090E00E942C016DE270E08AE241
:1010B00092E00E946B0268EE73E080E090E00E9494
:1010C0002C0160E088E00E94A60064EF71E080E0FF
:1010D00090E00E942C0168E270E087E292E00E94BA
:1010E0006B0268EE73E080E090E00E942C016FE0FC
:1010F00070E08AE292E00E946B0268EE73E080E0AA
:1011000090E00E942C0168E070E087E292E00E948B
:101110006B0268EE73E080E090E00E942C0164EBCB
:1011200070E0B4CE9801281B390BC90193CFAE01F2
:10113000481B590BCA019BCF9801281B390BC901C9
:10114000A3CF8DE391E00E949B03E0CE052E97FB99
:101150001EF400940E94BD0857FD07D00E94D808D5
:1011600007FC03D04EF40C94BD0850954095309583
:1011700021953F4F4F4F5F4F089590958095709503
:1011800061957F4F8F4F9F4F08950E94FA08A59F4A
:10119000900DB49F900DA49F800D911D1124089572
:1011A000B7FF0C94C5080E94C508821B930B0895D5
:1011B000A1E21A2EAA1BBB1BFD010DC0AA1FBB1F5B
:1011C000EE1FFF1FA217B307E407F50720F0A21BCD
:1011D000B30BE40BF50B661F771F881F991F1A943A
:1011E00069F760957095809590959B01AC01BD0164
:1011F000CF010895A29FB001B39FC001A39F700DBE
:10120000811D1124911DB29F700D811D1124911D0E
:101210000895991B79E004C0991F961708F0961B52
:10122000881F7A95C9F7809508950E94FA08B7FF3C
:101230000895821B930B0895EE0FFF1F0590F49104
:08124000E02D0994F894FFCFA2
:1012480000000000FE015E018B014B02BC019A0107
:10125800AE010D0A0020005741524E41204D455223
:1012680041480A005741524E4120424952550A000E
:101278005741524E412048494A41550A0057617228
:101288006E6120546964616B2044696B656E616CA2
:021298000A004A
:00000001FF
